{
  "contractName": "Habit",
  "abi": [
    {
      "constant": true,
      "inputs": [
        {
          "internalType": "uint256",
          "name": "",
          "type": "uint256"
        }
      ],
      "name": "habits",
      "outputs": [
        {
          "internalType": "address",
          "name": "owner",
          "type": "address"
        },
        {
          "internalType": "uint256",
          "name": "start_time",
          "type": "uint256"
        },
        {
          "internalType": "uint256",
          "name": "end_time",
          "type": "uint256"
        },
        {
          "internalType": "uint256",
          "name": "pool",
          "type": "uint256"
        }
      ],
      "payable": false,
      "stateMutability": "view",
      "type": "function"
    },
    {
      "constant": true,
      "inputs": [],
      "name": "numHabits",
      "outputs": [
        {
          "internalType": "uint256",
          "name": "",
          "type": "uint256"
        }
      ],
      "payable": false,
      "stateMutability": "view",
      "type": "function"
    },
    {
      "constant": false,
      "inputs": [
        {
          "internalType": "uint256",
          "name": "start_time_",
          "type": "uint256"
        }
      ],
      "name": "createHabit",
      "outputs": [],
      "payable": false,
      "stateMutability": "nonpayable",
      "type": "function"
    },
    {
      "constant": true,
      "inputs": [
        {
          "internalType": "uint256",
          "name": "habitId",
          "type": "uint256"
        }
      ],
      "name": "getStartTime",
      "outputs": [
        {
          "internalType": "uint256",
          "name": "",
          "type": "uint256"
        }
      ],
      "payable": false,
      "stateMutability": "view",
      "type": "function"
    },
    {
      "constant": true,
      "inputs": [
        {
          "internalType": "uint256",
          "name": "habitId",
          "type": "uint256"
        }
      ],
      "name": "getEndTime",
      "outputs": [
        {
          "internalType": "uint256",
          "name": "",
          "type": "uint256"
        }
      ],
      "payable": false,
      "stateMutability": "view",
      "type": "function"
    },
    {
      "constant": true,
      "inputs": [
        {
          "internalType": "uint256",
          "name": "habitId",
          "type": "uint256"
        }
      ],
      "name": "getOwner",
      "outputs": [
        {
          "internalType": "address",
          "name": "",
          "type": "address"
        }
      ],
      "payable": false,
      "stateMutability": "view",
      "type": "function"
    }
  ],
  "bytecode": "0x60806040526000805534801561001457600080fd5b506105b8806100246000396000f3fe608060405234801561001057600080fd5b50600436106100625760003560e01c80631277f428146100675780632da44d36146100955780639067b677146100b35780639f1f17ea146100f5578063bc2be1be14610178578063c41a360a146101ba575b600080fd5b6100936004803603602081101561007d57600080fd5b8101908080359060200190929190505050610228565b005b61009d610304565b6040518082815260200191505060405180910390f35b6100df600480360360208110156100c957600080fd5b810190808035906020019092919050505061030a565b6040518082815260200191505060405180910390f35b6101216004803603602081101561010b57600080fd5b81019080803590602001909291905050506103a3565b604051808573ffffffffffffffffffffffffffffffffffffffff1673ffffffffffffffffffffffffffffffffffffffff16815260200184815260200183815260200182815260200194505050505060405180910390f35b6101a46004803603602081101561018e57600080fd5b81019080803590602001909291905050506103f3565b6040518082815260200191505060405180910390f35b6101e6600480360360208110156101d057600080fd5b810190808035906020019092919050505061048c565b604051808273ffffffffffffffffffffffffffffffffffffffff1673ffffffffffffffffffffffffffffffffffffffff16815260200191505060405180910390f35b610230610545565b60405180608001604052803373ffffffffffffffffffffffffffffffffffffffff1681526020018381526020016206978084018152602001600081525090506000806000815480929190600101919050559050816001600083815260200190815260200160002060008201518160010160006101000a81548173ffffffffffffffffffffffffffffffffffffffff021916908373ffffffffffffffffffffffffffffffffffffffff160217905550602082015181600201556040820151816003015560608201518160040155905050505050565b60005481565b6000816000548110610384576040517f08c379a00000000000000000000000000000000000000000000000000000000081526004018080602001828103825260108152602001807f496e76616c69642068616269742069640000000000000000000000000000000081525060200191505060405180910390fd5b6001600084815260200190815260200160002060030154915050919050565b60016020528060005260406000206000915090508060010160009054906101000a900473ffffffffffffffffffffffffffffffffffffffff16908060020154908060030154908060040154905084565b600081600054811061046d576040517f08c379a00000000000000000000000000000000000000000000000000000000081526004018080602001828103825260108152602001807f496e76616c69642068616269742069640000000000000000000000000000000081525060200191505060405180910390fd5b6001600084815260200190815260200160002060020154915050919050565b6000816000548110610506576040517f08c379a00000000000000000000000000000000000000000000000000000000081526004018080602001828103825260108152602001807f496e76616c69642068616269742069640000000000000000000000000000000081525060200191505060405180910390fd5b6001600084815260200190815260200160002060010160009054906101000a900473ffffffffffffffffffffffffffffffffffffffff16915050919050565b6040518060800160405280600073ffffffffffffffffffffffffffffffffffffffff168152602001600081526020016000815260200160008152509056fea265627a7a723158204ac9d310415ce2e46f12e273b8071556035cb7a1b0418dfcde80176b3e939f8064736f6c63430005100032",
  "source": "pragma solidity ^0.5.0;\r\n\r\ncontract Habit {\r\n\r\n    struct user {\r\n        address addr;\r\n        uint pledge_amt;\r\n        bool is_loser;\r\n        uint8[5] check_list;\r\n    }\r\n\r\n    // user addr -> User struct & attributes\r\n    // Mapping users address -> user\r\n    struct habit {\r\n        mapping(address => user) users;\r\n        address owner;\r\n        uint start_time;\r\n        uint end_time;\r\n        uint256 pool;\r\n    }\r\n\r\n    uint256 public numHabits = 0;\r\n    mapping(uint256 => habit) public habits;\r\n\r\n    // Checks if valid Id\r\n    modifier isValidId(uint256 habitId) {\r\n        require(habitId < numHabits, \"Invalid habit id\");\r\n        _;\r\n    }\r\n\r\n    // Create the challenge and set a date range\r\n    // client side will convert date/time to block.timestamp offset\r\n    function createHabit(uint start_time_) public {\r\n\r\n        habit memory newHabit = habit(\r\n            {\r\n                owner: msg.sender,\r\n                start_time: start_time_,\r\n                end_time: start_time_ + 5 days,\r\n                pool: 0\r\n            }\r\n        );\r\n\r\n        uint256 newHabitId = numHabits++;\r\n        habits[newHabitId] = newHabit;\r\n    }\r\n\r\n    // user joins the habit with an amount to pledge\r\n    // set the check_list size to be the date_range\r\n    // function join() public payable {\r\n    //     require(users[msg.sender].addr == address(0), \"User already exists\");\r\n    //     user memory user_ = user(msg.sender, msg.value, false, [0, 0, 0, 0, 0]); // create user\r\n    //     pool += msg.value; // increase pool\r\n    //     users[msg.sender] = user_; // add to user mapping\r\n    // }\r\n\r\n    /*\r\n    // users call this to verify their habit each day\r\n    // will also be used to check if user\r\n    function verify() {\r\n        require(msg.sender in users)\r\n        require(start date <= current date <= end date)\r\n        user  = users[msg.sender]\r\n        require(user.is_loser is False) // no point verifying a loser\r\n        \r\n    If verification timestamp within acceptable time:\r\n            Index = offset of current date from start date\r\n            For day up till end of current day:\r\n                If any day is False:\r\n                    Set user.is_loser to True\r\n                Elif day is current day:\r\n                    Set check_list[idx] to True\r\n        Else\r\n            Set user.is_loser to True\r\n    }\r\n\r\n    // owner can end the contract after the start date\r\n    // find out who won & distribute the funds from the loser’s pool\r\n    Void end_contract():\r\n        require(msg.sender is owner)\r\n        Loser_pool = 0    \r\n        For idx in users mapping:\r\n            Addr, User = users[idx]\r\n            If user.is_loser:\r\n                Loser_pool += user.pledge\r\n\r\n        If there are losers:\r\n        Winner_pool = total_pool - loser_pool\r\n    For idx in users mapping:\r\n            Addr, user = users[idx]\r\n            If not user.is_loser:\r\n                Winnings = user.pledge + (user.pledge/winner_pool) * loser_pool\r\n                addr.transfer(winnings) // transfer user's winnings\r\n    Else: // just trf pledge amount back to all users\r\n        For idx in users.mapping:\r\n            Addr, user = users[idx]\r\n            addr.transfer(user.pledge)\r\n\r\n    selfdestruct(owner) // destroy the contract & send\r\n    */\r\n\r\n    function getStartTime(uint256 habitId) public view isValidId(habitId) returns (uint) {\r\n        return habits[habitId].start_time;\r\n    }\r\n\r\n    function getEndTime(uint256 habitId) public view isValidId(habitId) returns (uint) {\r\n        return habits[habitId].end_time;\r\n    }\r\n\r\n    function getOwner(uint256 habitId) public view isValidId(habitId) returns (address) {\r\n        return habits[habitId].owner;\r\n    }\r\n\r\n}\r\n\r\n",
  "sourcePath": "D:/Large_Scale_Work/IS4302/HabitChain/backend/contracts/Habit.sol",
  "compiler": {
    "name": "solc",
    "version": "0.5.16+commit.9c3226ce.Emscripten.clang"
  },
  "schemaVersion": "3.3.3",
  "updatedAt": "2022-03-17T07:07:55.226Z",
  "networkType": "ethereum",
  "devdoc": {
    "methods": {}
  },
  "userdoc": {
    "methods": {}
  }
}