{
  "contractName": "Habit",
  "abi": [
    {
      "inputs": [
        {
          "internalType": "uint256",
          "name": "start_time_",
          "type": "uint256"
        }
      ],
      "payable": true,
      "stateMutability": "payable",
      "type": "constructor"
    },
    {
      "constant": false,
      "inputs": [],
      "name": "join",
      "outputs": [],
      "payable": true,
      "stateMutability": "payable",
      "type": "function"
    },
    {
      "constant": false,
      "inputs": [
        {
          "internalType": "address",
          "name": "user_addr",
          "type": "address"
        },
        {
          "internalType": "uint8",
          "name": "verify_value",
          "type": "uint8"
        },
        {
          "internalType": "uint256",
          "name": "curr_day",
          "type": "uint256"
        }
      ],
      "name": "verify_user",
      "outputs": [],
      "payable": false,
      "stateMutability": "nonpayable",
      "type": "function"
    }
  ],
  "bytecode": "0x6080604052604051610b70380380610b708339818101604052602081101561002657600080fd5b810190808051906020019092919050505033600160006101000a81548173ffffffffffffffffffffffffffffffffffffffff021916908373ffffffffffffffffffffffffffffffffffffffff16021790555080600281905550620697806002540160038190555061009b6100a160201b60201c565b50610432565b600073ffffffffffffffffffffffffffffffffffffffff166000803373ffffffffffffffffffffffffffffffffffffffff1673ffffffffffffffffffffffffffffffffffffffff16815260200190815260200160002060000160009054906101000a900473ffffffffffffffffffffffffffffffffffffffff1673ffffffffffffffffffffffffffffffffffffffff16146101a4576040517f08c379a00000000000000000000000000000000000000000000000000000000081526004018080602001828103825260138152602001807f5573657220616c7265616479206578697374730000000000000000000000000081525060200191505060405180910390fd5b6101ac610300565b60405180608001604052803373ffffffffffffffffffffffffffffffffffffffff1681526020013481526020016000151581526020016040518060a00160405280600060ff168152602001600060ff168152602001600060ff168152602001600060ff168152602001600060ff16815250815250905034600460008282540192505081905550806000803373ffffffffffffffffffffffffffffffffffffffff1673ffffffffffffffffffffffffffffffffffffffff16815260200190815260200160002060008201518160000160006101000a81548173ffffffffffffffffffffffffffffffffffffffff021916908373ffffffffffffffffffffffffffffffffffffffff1602179055506020820151816001015560408201518160020160006101000a81548160ff0219169083151502179055506060820151816003019060056102f9929190610346565b5090505050565b6040518060800160405280600073ffffffffffffffffffffffffffffffffffffffff168152602001600081526020016000151581526020016103406103e0565b81525090565b826005601f016020900481019282156103cf5791602002820160005b838211156103a057835183826101000a81548160ff021916908360ff1602179055509260200192600101602081600001049283019260010302610362565b80156103cd5782816101000a81549060ff02191690556001016020816000010492830192600103026103a0565b505b5090506103dc9190610402565b5090565b6040518060a00160405280600590602082028038833980820191505090505090565b61042f91905b8082111561042b57600081816101000a81549060ff021916905550600101610408565b5090565b90565b61072f806104416000396000f3fe6080604052600436106100295760003560e01c8063b688a3631461002e578063dca0a06014610038575b600080fd5b6100366100a0565b005b34801561004457600080fd5b5061009e6004803603606081101561005b57600080fd5b81019080803573ffffffffffffffffffffffffffffffffffffffff169060200190929190803560ff169060200190929190803590602001909291905050506102ff565b005b600073ffffffffffffffffffffffffffffffffffffffff166000803373ffffffffffffffffffffffffffffffffffffffff1673ffffffffffffffffffffffffffffffffffffffff16815260200190815260200160002060000160009054906101000a900473ffffffffffffffffffffffffffffffffffffffff1673ffffffffffffffffffffffffffffffffffffffff16146101a3576040517f08c379a00000000000000000000000000000000000000000000000000000000081526004018080602001828103825260138152602001807f5573657220616c7265616479206578697374730000000000000000000000000081525060200191505060405180910390fd5b6101ab6105c8565b60405180608001604052803373ffffffffffffffffffffffffffffffffffffffff1681526020013481526020016000151581526020016040518060a00160405280600060ff168152602001600060ff168152602001600060ff168152602001600060ff168152602001600060ff16815250815250905034600460008282540192505081905550806000803373ffffffffffffffffffffffffffffffffffffffff1673ffffffffffffffffffffffffffffffffffffffff16815260200190815260200160002060008201518160000160006101000a81548173ffffffffffffffffffffffffffffffffffffffff021916908373ffffffffffffffffffffffffffffffffffffffff1602179055506020820151816001015560408201518160020160006101000a81548160ff0219169083151502179055506060820151816003019060056102f892919061060e565b5090505050565b600073ffffffffffffffffffffffffffffffffffffffff166000808573ffffffffffffffffffffffffffffffffffffffff1673ffffffffffffffffffffffffffffffffffffffff16815260200190815260200160002060000160009054906101000a900473ffffffffffffffffffffffffffffffffffffffff1673ffffffffffffffffffffffffffffffffffffffff161415610403576040517f08c379a00000000000000000000000000000000000000000000000000000000081526004018080602001828103825260158152602001807f55736572206e6f7420696e206368616c6c656e6765000000000000000000000081525060200191505060405180910390fd5b60008260ff16141561046e5760016000808573ffffffffffffffffffffffffffffffffffffffff1673ffffffffffffffffffffffffffffffffffffffff16815260200190815260200160002060020160006101000a81548160ff0219169083151502179055506105c3565b60008090505b8181116105545760008060008673ffffffffffffffffffffffffffffffffffffffff1673ffffffffffffffffffffffffffffffffffffffff16815260200190815260200160002060030182600581106104c957fe5b602091828204019190069054906101000a900460ff1660ff1614156105475760016000808673ffffffffffffffffffffffffffffffffffffffff1673ffffffffffffffffffffffffffffffffffffffff16815260200190815260200160002060020160006101000a81548160ff021916908315150217905550610554565b8080600101915050610474565b50816000808573ffffffffffffffffffffffffffffffffffffffff1673ffffffffffffffffffffffffffffffffffffffff16815260200190815260200160002060030182600581106105a257fe5b602091828204019190066101000a81548160ff021916908360ff1602179055505b505050565b6040518060800160405280600073ffffffffffffffffffffffffffffffffffffffff168152602001600081526020016000151581526020016106086106a8565b81525090565b826005601f016020900481019282156106975791602002820160005b8382111561066857835183826101000a81548160ff021916908360ff160217905550926020019260010160208160000104928301926001030261062a565b80156106955782816101000a81549060ff0219169055600101602081600001049283019260010302610668565b505b5090506106a491906106ca565b5090565b6040518060a00160405280600590602082028038833980820191505090505090565b6106f791905b808211156106f357600081816101000a81549060ff0219169055506001016106d0565b5090565b9056fea265627a7a72315820a13cc327ddd1731904f20cadc61391719af228c278230545627820f6e165328264736f6c63430005100032",
  "source": "pragma solidity ^0.5.0;\r\n\r\ncontract Habit {\r\n\r\n    struct user {\r\n        address addr;\r\n        uint pledge_amt;\r\n        bool is_loser;\r\n        uint8[5] check_list;\r\n    }\r\n\r\n    // user addr -> User struct & attributes\r\n    // Mapping users address -> user\r\n    mapping(address => user) users;\r\n    // address[] user_addresses; // maybe this\r\n    address owner;\r\n    // all times in timestamp as solidity uses unix timestamp\r\n    uint start_time;\r\n    uint end_time;\r\n    uint256 pool;\r\n\r\n\r\n    // Create the challenge and set a date range\r\n    // client side will convert date/time to block.timestamp offset\r\n    constructor(uint start_time_) public payable {\r\n        owner = msg.sender;\r\n        start_time = start_time_;\r\n        end_time = start_time + 5 days;\r\n        // owner joins & starts challenge\r\n        join();\r\n    }\r\n\r\n    // user joins the habit with an amount to pledge\r\n    // set the check_list size to be the date_range\r\n    function join() public payable {\r\n        require(users[msg.sender].addr == address(0), \"User already exists\");\r\n        user memory user_ = user(msg.sender, msg.value, false, [0, 0, 0, 0, 0]); // create user\r\n        pool += msg.value; // increase pool\r\n        users[msg.sender] = user_; // add to user mapping\r\n    }\r\n\r\n    // curr day is the day in offset [0,..5]\r\n    function verify_user(address user_addr, uint8 verify_value, uint curr_day) public {\r\n        // if called by user, change 'user' to 'msg.sender'\r\n        require(users[user_addr].addr != address(0), \"User not in challenge\");\r\n        \r\n        if (verify_value == 0) {\r\n            users[user_addr].is_loser = true;\r\n        } else {\r\n            for (uint dayNum = 0; dayNum <= curr_day; dayNum++) {\r\n                // if any day has failed, user is loser and break\r\n                if (users[user_addr].check_list[dayNum] == 0) {\r\n                    users[user_addr].is_loser = true;\r\n                    break;\r\n                }\r\n            }\r\n            // else fill up the val\r\n            users[user_addr].check_list[curr_day] = verify_value;\r\n        }\r\n    }\r\n\r\n    /*\r\n    // users call this to verify their habit each day\r\n    // will also be used to check if user\r\n    function verify() {\r\n        //  user needs to be in challenge before verifying\r\n        require(users[msg.sender].addr != address(0), \"User not in challenge\")\r\n        // get time of the current block, refreshes every 10 seconds.\r\n        time_of_verification = block.timestamp \r\n        require(start date <= current date <= end date)\r\n        user  = users[msg.sender]\r\n        require(user.is_loser is False) // no point verifying a loser\r\n        \r\n    If verification timestamp within acceptable time:\r\n            Index = offset of current date from start date\r\n            For day up till end of current day:\r\n                If any day is False:\r\n                    Set user.is_loser to True\r\n                Elif day is current day:\r\n                    Set check_list[idx] to True\r\n        Else\r\n            Set user.is_loser to True\r\n    }\r\n\r\n    // owner can end the contract after the start date\r\n    // find out who won & distribute the funds from the loser’s pool\r\n    Void end_contract():\r\n        require(msg.sender is owner)\r\n        Loser_pool = 0    \r\n        For idx in users mapping:\r\n            Addr, User = users[idx]\r\n            If user.is_loser:\r\n                Loser_pool += user.pledge\r\n\r\n        If there are losers:\r\n        Winner_pool = total_pool - loser_pool\r\n    For idx in users mapping:\r\n            Addr, user = users[idx]\r\n            If not user.is_loser:\r\n                Winnings = user.pledge + (user.pledge/winner_pool) * loser_pool\r\n                addr.transfer(winnings) // transfer user's winnings\r\n    Else: // just trf pledge amount back to all users\r\n        For idx in users.mapping:\r\n            Addr, user = users[idx]\r\n            addr.transfer(user.pledge)\r\n\r\n    selfdestruct(owner) // destroy the contract & send\r\n    */\r\n}\r\n\r\n",
  "sourcePath": "C:\\Users\\Raihan\\Documents\\VSCode_Workspace\\IS4302 Project\\IS4302-Project\\backend\\contracts\\Habit.sol",
  "compiler": {
    "name": "solc",
    "version": "0.5.16+commit.9c3226ce.Emscripten.clang"
  },
  "schemaVersion": "3.4.4",
  "updatedAt": "2022-03-15T09:26:43.242Z",
  "devdoc": {
    "methods": {}
  },
  "userdoc": {
    "methods": {}
  }
}