{
  "contractName": "Habit",
  "abi": [
    {
      "constant": true,
      "inputs": [
        {
          "internalType": "uint256",
          "name": "",
          "type": "uint256"
        }
      ],
      "name": "habits",
      "outputs": [
        {
          "internalType": "address",
          "name": "owner",
          "type": "address"
        },
        {
          "internalType": "uint256",
          "name": "start_time",
          "type": "uint256"
        },
        {
          "internalType": "uint256",
          "name": "end_time",
          "type": "uint256"
        },
        {
          "internalType": "uint256",
          "name": "pool",
          "type": "uint256"
        }
      ],
      "payable": false,
      "stateMutability": "view",
      "type": "function"
    },
    {
      "constant": true,
      "inputs": [],
      "name": "num_habits",
      "outputs": [
        {
          "internalType": "uint256",
          "name": "",
          "type": "uint256"
        }
      ],
      "payable": false,
      "stateMutability": "view",
      "type": "function"
    },
    {
      "constant": false,
      "inputs": [
        {
          "internalType": "uint256",
          "name": "start_time_",
          "type": "uint256"
        }
      ],
      "name": "create_habit",
      "outputs": [],
      "payable": false,
      "stateMutability": "nonpayable",
      "type": "function"
    },
    {
      "constant": false,
      "inputs": [
        {
          "internalType": "uint256",
          "name": "habit_id",
          "type": "uint256"
        }
      ],
      "name": "join",
      "outputs": [],
      "payable": true,
      "stateMutability": "payable",
      "type": "function"
    },
    {
      "constant": true,
      "inputs": [
        {
          "internalType": "uint256",
          "name": "habit_id",
          "type": "uint256"
        }
      ],
      "name": "get_start_time",
      "outputs": [
        {
          "internalType": "uint256",
          "name": "",
          "type": "uint256"
        }
      ],
      "payable": false,
      "stateMutability": "view",
      "type": "function"
    },
    {
      "constant": true,
      "inputs": [
        {
          "internalType": "uint256",
          "name": "habit_id",
          "type": "uint256"
        }
      ],
      "name": "get_end_time",
      "outputs": [
        {
          "internalType": "uint256",
          "name": "",
          "type": "uint256"
        }
      ],
      "payable": false,
      "stateMutability": "view",
      "type": "function"
    },
    {
      "constant": true,
      "inputs": [
        {
          "internalType": "uint256",
          "name": "habit_id",
          "type": "uint256"
        }
      ],
      "name": "get_owner",
      "outputs": [
        {
          "internalType": "address",
          "name": "",
          "type": "address"
        }
      ],
      "payable": false,
      "stateMutability": "view",
      "type": "function"
    }
  ],
  "bytecode": "0x60806040526000805534801561001457600080fd5b50610a12806100246000396000f3fe6080604052600436106100705760003560e01c8063722058751161004e57806372205875146101415780637a0b5893146101bc578063965588ad146101e75780639f1f17ea1461022257610070565b8063049878f31461007557806346e9dc4e146100a357806354cb12bd146100f2575b600080fd5b6100a16004803603602081101561008b57600080fd5b81019080803590602001909291905050506102b2565b005b3480156100af57600080fd5b506100dc600480360360208110156100c657600080fd5b8101908080359060200190929190505050610550565b6040518082815260200191505060405180910390f35b3480156100fe57600080fd5b5061012b6004803603602081101561011557600080fd5b81019080803590602001909291905050506105e9565b6040518082815260200191505060405180910390f35b34801561014d57600080fd5b5061017a6004803603602081101561016457600080fd5b8101908080359060200190929190505050610682565b604051808273ffffffffffffffffffffffffffffffffffffffff1673ffffffffffffffffffffffffffffffffffffffff16815260200191505060405180910390f35b3480156101c857600080fd5b506101d161073b565b6040518082815260200191505060405180910390f35b3480156101f357600080fd5b506102206004803603602081101561020a57600080fd5b8101908080359060200190929190505050610741565b005b34801561022e57600080fd5b5061025b6004803603602081101561024557600080fd5b810190808035906020019092919050505061081d565b604051808573ffffffffffffffffffffffffffffffffffffffff1673ffffffffffffffffffffffffffffffffffffffff16815260200184815260200183815260200182815260200194505050505060405180910390f35b600073ffffffffffffffffffffffffffffffffffffffff166001600083815260200190815260200160002060000160003373ffffffffffffffffffffffffffffffffffffffff1673ffffffffffffffffffffffffffffffffffffffff16815260200190815260200160002060000160009054906101000a900473ffffffffffffffffffffffffffffffffffffffff1673ffffffffffffffffffffffffffffffffffffffff16146103ca576040517f08c379a00000000000000000000000000000000000000000000000000000000081526004018080602001828103825260138152602001807f5573657220616c7265616479206578697374730000000000000000000000000081525060200191505060405180910390fd5b6103d261086d565b60405180608001604052803373ffffffffffffffffffffffffffffffffffffffff1681526020013481526020016000151581526020016040518060a00160405280600060ff168152602001600060ff168152602001600060ff168152602001600060ff168152602001600060ff168152508152509050346001600084815260200190815260200160002060040160008282540192505081905550806001600084815260200190815260200160002060000160003373ffffffffffffffffffffffffffffffffffffffff1673ffffffffffffffffffffffffffffffffffffffff16815260200190815260200160002060008201518160000160006101000a81548173ffffffffffffffffffffffffffffffffffffffff021916908373ffffffffffffffffffffffffffffffffffffffff1602179055506020820151816001015560408201518160020160006101000a81548160ff0219169083151502179055506060820151816003019060056105489291906108b3565b509050505050565b60008160005481106105ca576040517f08c379a00000000000000000000000000000000000000000000000000000000081526004018080602001828103825260108152602001807f496e76616c69642068616269742069640000000000000000000000000000000081525060200191505060405180910390fd5b6001600084815260200190815260200160002060030154915050919050565b6000816000548110610663576040517f08c379a00000000000000000000000000000000000000000000000000000000081526004018080602001828103825260108152602001807f496e76616c69642068616269742069640000000000000000000000000000000081525060200191505060405180910390fd5b6001600084815260200190815260200160002060020154915050919050565b60008160005481106106fc576040517f08c379a00000000000000000000000000000000000000000000000000000000081526004018080602001828103825260108152602001807f496e76616c69642068616269742069640000000000000000000000000000000081525060200191505060405180910390fd5b6001600084815260200190815260200160002060010160009054906101000a900473ffffffffffffffffffffffffffffffffffffffff16915050919050565b60005481565b61074961094d565b60405180608001604052803373ffffffffffffffffffffffffffffffffffffffff1681526020018381526020016206978084018152602001600081525090506000806000815480929190600101919050559050816001600083815260200190815260200160002060008201518160010160006101000a81548173ffffffffffffffffffffffffffffffffffffffff021916908373ffffffffffffffffffffffffffffffffffffffff160217905550602082015181600201556040820151816003015560608201518160040155905050505050565b60016020528060005260406000206000915090508060010160009054906101000a900473ffffffffffffffffffffffffffffffffffffffff16908060020154908060030154908060040154905084565b6040518060800160405280600073ffffffffffffffffffffffffffffffffffffffff168152602001600081526020016000151581526020016108ad61098b565b81525090565b826005601f0160209004810192821561093c5791602002820160005b8382111561090d57835183826101000a81548160ff021916908360ff16021790555092602001926001016020816000010492830192600103026108cf565b801561093a5782816101000a81549060ff021916905560010160208160000104928301926001030261090d565b505b50905061094991906109ad565b5090565b6040518060800160405280600073ffffffffffffffffffffffffffffffffffffffff1681526020016000815260200160008152602001600081525090565b6040518060a00160405280600590602082028038833980820191505090505090565b6109da91905b808211156109d657600081816101000a81549060ff0219169055506001016109b3565b5090565b9056fea265627a7a7231582048a7117be34aaa25b83e30facbc7d7cc3e36b82046b90bf67573f87e2023aa8d64736f6c63430005100032",
  "source": "pragma solidity ^0.5.0;\n\ncontract Habit {\n\n    struct user {\n        address addr;\n        uint256 pledge_amt;\n        bool is_loser;\n        uint8[5] check_list;\n    }\n\n    // user addr -> User struct & attributes\n    // Mapping users address -> user\n    struct habit {\n        mapping(address => user) users;\n        address owner;\n        uint start_time;\n        uint end_time;\n        uint256 pool;\n    }\n\n    uint256 public num_habits = 0;\n    mapping(uint256 => habit) public habits;\n\n    // Checks if valid Id\n    modifier is_valid_id(uint256 habit_id) {\n        require(habit_id < num_habits, \"Invalid habit id\");\n        _;\n    }\n\n    // Create the challenge and set a date range\n    // client side will convert date/time to block.timestamp offset\n    function create_habit(uint start_time_) public {\n\n        habit memory new_habit = habit(\n            {\n                owner: msg.sender,\n                start_time: start_time_,\n                end_time: start_time_ + 5 days,\n                pool: 0\n            }\n        );\n\n        uint256 new_habit_id = num_habits++;\n        habits[new_habit_id] = new_habit;\n    }\n\n    // user joins the habit with an amount to pledge\n    // set the check_list size to be the date_range\n    function join(uint256 habit_id) public payable {\n        require(habits[habit_id].users[msg.sender].addr == address(0), \"User already exists\");\n        user memory user_ = user(msg.sender, msg.value, false, [0, 0, 0, 0, 0]); // create user\n        habits[habit_id].pool += msg.value; // increase pool\n        habits[habit_id].users[msg.sender] = user_; // add to user mapping\n    }\n\n    /*\n    // users call this to verify their habit each day\n    // will also be used to check if user\n    function verify() {\n        require(msg.sender in users)\n        require(start date <= current date <= end date)\n        user  = users[msg.sender]\n        require(user.is_loser is False) // no point verifying a loser\n        \n    If verification timestamp within acceptable time:\n            Index = offset of current date from start date\n            For day up till end of current day:\n                If any day is False:\n                    Set user.is_loser to True\n                Elif day is current day:\n                    Set check_list[idx] to True\n        Else\n            Set user.is_loser to True\n    }\n\n    // owner can end the contract after the start date\n    // find out who won & distribute the funds from the loser’s pool\n    Void end_contract():\n        require(msg.sender is owner)\n        Loser_pool = 0    \n        For idx in users mapping:\n            Addr, User = users[idx]\n            If user.is_loser:\n                Loser_pool += user.pledge\n\n        If there are losers:\n        Winner_pool = total_pool - loser_pool\n    For idx in users mapping:\n            Addr, user = users[idx]\n            If not user.is_loser:\n                Winnings = user.pledge + (user.pledge/winner_pool) * loser_pool\n                addr.transfer(winnings) // transfer user's winnings\n    Else: // just trf pledge amount back to all users\n        For idx in users.mapping:\n            Addr, user = users[idx]\n            addr.transfer(user.pledge)\n\n    selfdestruct(owner) // destroy the contract & send\n    */\n\n    function get_start_time(uint256 habit_id) public view is_valid_id(habit_id) returns (uint) {\n        return habits[habit_id].start_time;\n    }\n\n    function get_end_time(uint256 habit_id) public view is_valid_id(habit_id) returns (uint) {\n        return habits[habit_id].end_time;\n    }\n\n    function get_owner(uint256 habit_id) public view is_valid_id(habit_id) returns (address) {\n        return habits[habit_id].owner;\n    }\n\n}\n\n",
  "sourcePath": "/home/abhinavramnath/Documents/IS4302/Forks/HabitChain/backend/contracts/Habit.sol",
  "compiler": {
    "name": "solc",
    "version": "0.5.16+commit.9c3226ce.Emscripten.clang"
  },
  "schemaVersion": "3.4.4",
  "updatedAt": "2022-03-21T06:13:45.474Z",
  "devdoc": {
    "methods": {}
  },
  "userdoc": {
    "methods": {}
  }
}