{
  "contractName": "Habit",
  "abi": [
    {
      "inputs": [
        {
          "internalType": "uint256",
          "name": "start_time_",
          "type": "uint256"
        }
      ],
      "payable": true,
      "stateMutability": "payable",
      "type": "constructor"
    },
    {
      "constant": false,
      "inputs": [],
      "name": "join",
      "outputs": [],
      "payable": true,
      "stateMutability": "payable",
      "type": "function"
    }
  ],
  "bytecode": "0x60806040526040516108343803806108348339818101604052602081101561002657600080fd5b810190808051906020019092919050505033600160006101000a81548173ffffffffffffffffffffffffffffffffffffffff021916908373ffffffffffffffffffffffffffffffffffffffff16021790555080600281905550620697806002540160038190555061009b6100a160201b60201c565b50610432565b600073ffffffffffffffffffffffffffffffffffffffff166000803373ffffffffffffffffffffffffffffffffffffffff1673ffffffffffffffffffffffffffffffffffffffff16815260200190815260200160002060000160009054906101000a900473ffffffffffffffffffffffffffffffffffffffff1673ffffffffffffffffffffffffffffffffffffffff16146101a4576040517f08c379a00000000000000000000000000000000000000000000000000000000081526004018080602001828103825260138152602001807f5573657220616c7265616479206578697374730000000000000000000000000081525060200191505060405180910390fd5b6101ac610300565b60405180608001604052803373ffffffffffffffffffffffffffffffffffffffff1681526020013481526020016000151581526020016040518060a00160405280600060ff168152602001600060ff168152602001600060ff168152602001600060ff168152602001600060ff16815250815250905034600460008282540192505081905550806000803373ffffffffffffffffffffffffffffffffffffffff1673ffffffffffffffffffffffffffffffffffffffff16815260200190815260200160002060008201518160000160006101000a81548173ffffffffffffffffffffffffffffffffffffffff021916908373ffffffffffffffffffffffffffffffffffffffff1602179055506020820151816001015560408201518160020160006101000a81548160ff0219169083151502179055506060820151816003019060056102f9929190610346565b5090505050565b6040518060800160405280600073ffffffffffffffffffffffffffffffffffffffff168152602001600081526020016000151581526020016103406103e0565b81525090565b826005601f016020900481019282156103cf5791602002820160005b838211156103a057835183826101000a81548160ff021916908360ff1602179055509260200192600101602081600001049283019260010302610362565b80156103cd5782816101000a81549060ff02191690556001016020816000010492830192600103026103a0565b505b5090506103dc9190610402565b5090565b6040518060a00160405280600590602082028038833980820191505090505090565b61042f91905b8082111561042b57600081816101000a81549060ff021916905550600101610408565b5090565b90565b6103f3806104416000396000f3fe60806040526004361061001e5760003560e01c8063b688a36314610023575b600080fd5b61002b61002d565b005b600073ffffffffffffffffffffffffffffffffffffffff166000803373ffffffffffffffffffffffffffffffffffffffff1673ffffffffffffffffffffffffffffffffffffffff16815260200190815260200160002060000160009054906101000a900473ffffffffffffffffffffffffffffffffffffffff1673ffffffffffffffffffffffffffffffffffffffff1614610130576040517f08c379a00000000000000000000000000000000000000000000000000000000081526004018080602001828103825260138152602001807f5573657220616c7265616479206578697374730000000000000000000000000081525060200191505060405180910390fd5b61013861028c565b60405180608001604052803373ffffffffffffffffffffffffffffffffffffffff1681526020013481526020016000151581526020016040518060a00160405280600060ff168152602001600060ff168152602001600060ff168152602001600060ff168152602001600060ff16815250815250905034600460008282540192505081905550806000803373ffffffffffffffffffffffffffffffffffffffff1673ffffffffffffffffffffffffffffffffffffffff16815260200190815260200160002060008201518160000160006101000a81548173ffffffffffffffffffffffffffffffffffffffff021916908373ffffffffffffffffffffffffffffffffffffffff1602179055506020820151816001015560408201518160020160006101000a81548160ff0219169083151502179055506060820151816003019060056102859291906102d2565b5090505050565b6040518060800160405280600073ffffffffffffffffffffffffffffffffffffffff168152602001600081526020016000151581526020016102cc61036c565b81525090565b826005601f0160209004810192821561035b5791602002820160005b8382111561032c57835183826101000a81548160ff021916908360ff16021790555092602001926001016020816000010492830192600103026102ee565b80156103595782816101000a81549060ff021916905560010160208160000104928301926001030261032c565b505b509050610368919061038e565b5090565b6040518060a00160405280600590602082028038833980820191505090505090565b6103bb91905b808211156103b757600081816101000a81549060ff021916905550600101610394565b5090565b9056fea265627a7a72315820f80011d5c599d3d86c11a9dcd3978092823d936e730dc8b66797fe4ef1ff158a64736f6c63430005100032",
  "source": "pragma solidity ^0.5.0;\n\ncontract Habit {\n\n    struct user {\n        address addr;\n        uint pledge_amt;\n        bool is_loser;\n        uint8[5] check_list;\n    }\n\n    // user addr -> User struct & attributes\n    // Mapping users address -> user\n    mapping(address => user) users;\n    address owner;\n    uint start_time;\n    uint end_time;\n    uint256 pool;\n\n\n    // Create the challenge and set a date range\n    // client side will convert date/time to block.timestamp offset\n    constructor(uint start_time_) public payable {\n        owner = msg.sender;\n        start_time = start_time_;\n        end_time = start_time + 5 days;\n        // owner joins & starts challenge\n        join();\n    }\n\n    // user joins the habit with an amount to pledge\n    // set the check_list size to be the date_range\n    function join() public payable {\n        require(users[msg.sender].addr == address(0), \"User already exists\");\n        user memory user_ = user(msg.sender, msg.value, false, [0, 0, 0, 0, 0]); // create user\n        pool += msg.value; // increase pool\n        users[msg.sender] = user_; // add to user mapping\n    }\n\n    /*\n    // users call this to verify their habit each day\n    // will also be used to check if user\n    function verify() {\n        require(msg.sender in users)\n        require(start date <= current date <= end date)\n        user  = users[msg.sender]\n        require(user.is_loser is False) // no point verifying a loser\n        \n    If verification timestamp within acceptable time:\n            Index = offset of current date from start date\n            For day up till end of current day:\n                If any day is False:\n                    Set user.is_loser to True\n                Elif day is current day:\n                    Set check_list[idx] to True\n        Else\n            Set user.is_loser to True\n    }\n\n    // owner can end the contract after the start date\n    // find out who won & distribute the funds from the loser’s pool\n    Void end_contract():\n        require(msg.sender is owner)\n        Loser_pool = 0    \n        For idx in users mapping:\n            Addr, User = users[idx]\n            If user.is_loser:\n                Loser_pool += user.pledge\n\n        If there are losers:\n        Winner_pool = total_pool - loser_pool\n    For idx in users mapping:\n            Addr, user = users[idx]\n            If not user.is_loser:\n                Winnings = user.pledge + (user.pledge/winner_pool) * loser_pool\n                addr.transfer(winnings) // transfer user's winnings\n    Else: // just trf pledge amount back to all users\n        For idx in users.mapping:\n            Addr, user = users[idx]\n            addr.transfer(user.pledge)\n\n    selfdestruct(owner) // destroy the contract & send\n    */\n}\n\n",
  "sourcePath": "/home/abhinavramnath/Documents/IS4302/HabitChain/backend/contracts/Habit.sol",
  "compiler": {
    "name": "solc",
    "version": "0.5.16+commit.9c3226ce.Emscripten.clang"
  },
  "schemaVersion": "3.4.4",
  "updatedAt": "2022-03-15T08:15:42.235Z",
  "devdoc": {
    "methods": {}
  },
  "userdoc": {
    "methods": {}
  }
}