{
  "contractName": "Habit",
  "abi": [
    {
      "inputs": [
        {
          "internalType": "uint256",
          "name": "start_time_",
          "type": "uint256"
        }
      ],
      "payable": false,
      "stateMutability": "nonpayable",
      "type": "constructor"
    },
    {
      "constant": false,
      "inputs": [],
      "name": "join",
      "outputs": [],
      "payable": true,
      "stateMutability": "payable",
      "type": "function"
    }
  ],
  "bytecode": "0x608060405233600160006101000a81548173ffffffffffffffffffffffffffffffffffffffff021916908373ffffffffffffffffffffffffffffffffffffffff16021790555034801561005157600080fd5b506040516108823803806108828339818101604052602081101561007457600080fd5b810190808051906020019092919050505033600160006101000a81548173ffffffffffffffffffffffffffffffffffffffff021916908373ffffffffffffffffffffffffffffffffffffffff1602179055508060028190555062069780600254016003819055506100e96100ef60201b60201c565b50610480565b600073ffffffffffffffffffffffffffffffffffffffff166000803373ffffffffffffffffffffffffffffffffffffffff1673ffffffffffffffffffffffffffffffffffffffff16815260200190815260200160002060000160009054906101000a900473ffffffffffffffffffffffffffffffffffffffff1673ffffffffffffffffffffffffffffffffffffffff16146101f2576040517f08c379a00000000000000000000000000000000000000000000000000000000081526004018080602001828103825260138152602001807f5573657220616c7265616479206578697374730000000000000000000000000081525060200191505060405180910390fd5b6101fa61034e565b60405180608001604052803373ffffffffffffffffffffffffffffffffffffffff1681526020013481526020016000151581526020016040518060a00160405280600060ff168152602001600060ff168152602001600060ff168152602001600060ff168152602001600060ff16815250815250905034600460008282540192505081905550806000803373ffffffffffffffffffffffffffffffffffffffff1673ffffffffffffffffffffffffffffffffffffffff16815260200190815260200160002060008201518160000160006101000a81548173ffffffffffffffffffffffffffffffffffffffff021916908373ffffffffffffffffffffffffffffffffffffffff1602179055506020820151816001015560408201518160020160006101000a81548160ff021916908315150217905550606082015181600301906005610347929190610394565b5090505050565b6040518060800160405280600073ffffffffffffffffffffffffffffffffffffffff1681526020016000815260200160001515815260200161038e61042e565b81525090565b826005601f0160209004810192821561041d5791602002820160005b838211156103ee57835183826101000a81548160ff021916908360ff16021790555092602001926001016020816000010492830192600103026103b0565b801561041b5782816101000a81549060ff02191690556001016020816000010492830192600103026103ee565b505b50905061042a9190610450565b5090565b6040518060a00160405280600590602082028038833980820191505090505090565b61047d91905b8082111561047957600081816101000a81549060ff021916905550600101610456565b5090565b90565b6103f38061048f6000396000f3fe60806040526004361061001e5760003560e01c8063b688a36314610023575b600080fd5b61002b61002d565b005b600073ffffffffffffffffffffffffffffffffffffffff166000803373ffffffffffffffffffffffffffffffffffffffff1673ffffffffffffffffffffffffffffffffffffffff16815260200190815260200160002060000160009054906101000a900473ffffffffffffffffffffffffffffffffffffffff1673ffffffffffffffffffffffffffffffffffffffff1614610130576040517f08c379a00000000000000000000000000000000000000000000000000000000081526004018080602001828103825260138152602001807f5573657220616c7265616479206578697374730000000000000000000000000081525060200191505060405180910390fd5b61013861028c565b60405180608001604052803373ffffffffffffffffffffffffffffffffffffffff1681526020013481526020016000151581526020016040518060a00160405280600060ff168152602001600060ff168152602001600060ff168152602001600060ff168152602001600060ff16815250815250905034600460008282540192505081905550806000803373ffffffffffffffffffffffffffffffffffffffff1673ffffffffffffffffffffffffffffffffffffffff16815260200190815260200160002060008201518160000160006101000a81548173ffffffffffffffffffffffffffffffffffffffff021916908373ffffffffffffffffffffffffffffffffffffffff1602179055506020820151816001015560408201518160020160006101000a81548160ff0219169083151502179055506060820151816003019060056102859291906102d2565b5090505050565b6040518060800160405280600073ffffffffffffffffffffffffffffffffffffffff168152602001600081526020016000151581526020016102cc61036c565b81525090565b826005601f0160209004810192821561035b5791602002820160005b8382111561032c57835183826101000a81548160ff021916908360ff16021790555092602001926001016020816000010492830192600103026102ee565b80156103595782816101000a81549060ff021916905560010160208160000104928301926001030261032c565b505b509050610368919061038e565b5090565b6040518060a00160405280600590602082028038833980820191505090505090565b6103bb91905b808211156103b757600081816101000a81549060ff021916905550600101610394565b5090565b9056fea265627a7a723158202436a4240b00a7acb69fed84a992be61f6c6e6569e8599e3fff24197aa6e07fb64736f6c63430005100032",
  "source": "pragma solidity ^0.5.0;\r\n\r\ncontract Habit {\r\n\r\n    struct user {\r\n        address addr;\r\n        uint pledge_amt;\r\n        bool is_loser;\r\n        uint8[5] check_list;\r\n    }\r\n\r\n    // user addr -> User struct & attributes\r\n    // Mapping users address -> user\r\n    mapping(address => user) users;\r\n    address owner = msg.sender;\r\n    uint start_time;\r\n    uint end_time;\r\n    uint256 pool;\r\n\r\n\r\n    // Create the challenge and set a date range\r\n    // client side will convert date/time to block.timestamp offset\r\n    constructor(uint start_time_) public {\r\n        owner = msg.sender;\r\n        start_time = start_time_;\r\n        end_time = start_time + 5 days;\r\n        // owner joins & starts challenge\r\n        join();\r\n    }\r\n\r\n    // user joins the habit with an amount to pledge\r\n    // set the check_list size to be the date_range\r\n    function join() public payable {\r\n        require(users[msg.sender].addr == address(0), \"User already exists\");\r\n        user memory user_ = user(msg.sender, msg.value, false, [0, 0, 0, 0, 0]); // create user\r\n        pool += msg.value; // increase pool\r\n        users[msg.sender] = user_; // add to user mapping\r\n    }\r\n\r\n    /*\r\n    // users call this to verify their habit each day\r\n    // will also be used to check if user\r\n    function verify() {\r\n        require(msg.sender in users)\r\n        require(start date <= current date <= end date)\r\n        user  = users[msg.sender]\r\n        require(user.is_loser is False) // no point verifying a loser\r\n        \r\n    If verification timestamp within acceptable time:\r\n            Index = offset of current date from start date\r\n            For day up till end of current day:\r\n                If any day is False:\r\n                    Set user.is_loser to True\r\n                Elif day is current day:\r\n                    Set check_list[idx] to True\r\n        Else\r\n            Set user.is_loser to True\r\n    }\r\n\r\n    // owner can end the contract after the start date\r\n    // find out who won & distribute the funds from the loser’s pool\r\n    Void end_contract():\r\n        require(msg.sender is owner)\r\n        Loser_pool = 0    \r\n        For idx in users mapping:\r\n            Addr, User = users[idx]\r\n            If user.is_loser:\r\n                Loser_pool += user.pledge\r\n\r\n        If there are losers:\r\n        Winner_pool = total_pool - loser_pool\r\n    For idx in users mapping:\r\n            Addr, user = users[idx]\r\n            If not user.is_loser:\r\n                Winnings = user.pledge + (user.pledge/winner_pool) * loser_pool\r\n                addr.transfer(winnings) // transfer user's winnings\r\n    Else: // just trf pledge amount back to all users\r\n        For idx in users.mapping:\r\n            Addr, user = users[idx]\r\n            addr.transfer(user.pledge)\r\n\r\n    selfdestruct(owner) // destroy the contract & send\r\n    */\r\n}\r\n\r\n",
  "sourcePath": "C:\\Users\\User\\Documents\\Git\\IS4302\\HabitChain\\backend\\contracts\\Habit.sol",
  "compiler": {
    "name": "solc",
    "version": "0.5.16+commit.9c3226ce.Emscripten.clang"
  },
  "schemaVersion": "3.4.4",
  "updatedAt": "2022-03-16T18:34:13.401Z",
  "devdoc": {
    "methods": {}
  },
  "userdoc": {
    "methods": {}
  }
}